{
  "contractName": "CertificateAuthority",
  "abi": [
    {
      "inputs": [
        {
          "internalType": "string",
          "name": "_eventName",
          "type": "string"
        }
      ],
      "stateMutability": "nonpayable",
      "type": "constructor"
    },
    {
      "anonymous": false,
      "inputs": [
        {
          "indexed": false,
          "internalType": "string",
          "name": "msg",
          "type": "string"
        }
      ],
      "name": "success",
      "type": "event"
    },
    {
      "inputs": [
        {
          "internalType": "uint256",
          "name": "",
          "type": "uint256"
        }
      ],
      "name": "dataTransferList",
      "outputs": [
        {
          "internalType": "string",
          "name": "",
          "type": "string"
        }
      ],
      "stateMutability": "view",
      "type": "function",
      "constant": true
    },
    {
      "inputs": [],
      "name": "eventName",
      "outputs": [
        {
          "internalType": "string",
          "name": "",
          "type": "string"
        }
      ],
      "stateMutability": "view",
      "type": "function",
      "constant": true
    },
    {
      "inputs": [
        {
          "internalType": "address",
          "name": "_IoT_deviceAddress",
          "type": "address"
        },
        {
          "internalType": "string",
          "name": "_name",
          "type": "string"
        }
      ],
      "name": "registerAddress",
      "outputs": [],
      "stateMutability": "nonpayable",
      "type": "function"
    },
    {
      "inputs": [
        {
          "internalType": "address",
          "name": "_deviceAddress",
          "type": "address"
        }
      ],
      "name": "getIoTDeviceRegistrationStatus",
      "outputs": [
        {
          "internalType": "bool",
          "name": "",
          "type": "bool"
        }
      ],
      "stateMutability": "view",
      "type": "function",
      "constant": true
    }
  ],
  "bytecode": "0x60806040523480156200001157600080fd5b5060405162000eb138038062000eb18339818101604052810190620000379190620002e4565b336000806101000a81548173ffffffffffffffffffffffffffffffffffffffff021916908373ffffffffffffffffffffffffffffffffffffffff16021790555080600190805190602001906200008f92919062000097565b505062000399565b828054620000a59062000364565b90600052602060002090601f016020900481019282620000c9576000855562000115565b82601f10620000e457805160ff191683800117855562000115565b8280016001018555821562000115579182015b8281111562000114578251825591602001919060010190620000f7565b5b50905062000124919062000128565b5090565b5b808211156200014357600081600090555060010162000129565b5090565b6000604051905090565b600080fd5b600080fd5b600080fd5b600080fd5b6000601f19601f8301169050919050565b7f4e487b7100000000000000000000000000000000000000000000000000000000600052604160045260246000fd5b620001b08262000165565b810181811067ffffffffffffffff82111715620001d257620001d162000176565b5b80604052505050565b6000620001e762000147565b9050620001f58282620001a5565b919050565b600067ffffffffffffffff82111562000218576200021762000176565b5b620002238262000165565b9050602081019050919050565b60005b838110156200025057808201518184015260208101905062000233565b8381111562000260576000848401525b50505050565b60006200027d6200027784620001fa565b620001db565b9050828152602081018484840111156200029c576200029b62000160565b5b620002a984828562000230565b509392505050565b600082601f830112620002c957620002c86200015b565b5b8151620002db84826020860162000266565b91505092915050565b600060208284031215620002fd57620002fc62000151565b5b600082015167ffffffffffffffff8111156200031e576200031d62000156565b5b6200032c84828501620002b1565b91505092915050565b7f4e487b7100000000000000000000000000000000000000000000000000000000600052602260045260246000fd5b600060028204905060018216806200037d57607f821691505b60208210810362000393576200039262000335565b5b50919050565b610b0880620003a96000396000f3fe608060405234801561001057600080fd5b506004361061004c5760003560e01c80638043c9c014610051578063c58e04541461006f578063c95e7a7e1461008b578063ed04e1ff146100bb575b600080fd5b6100596100eb565b6040516100669190610687565b60405180910390f35b61008960048036038101906100849190610776565b610179565b005b6100a560048036038101906100a0919061080c565b610446565b6040516100b29190610687565b60405180910390f35b6100d560048036038101906100d09190610839565b6104f2565b6040516100e29190610881565b60405180910390f35b600180546100f8906108cb565b80601f0160208091040260200160405190810160405280929190818152602001828054610124906108cb565b80156101715780601f1061014657610100808354040283529160200191610171565b820191906000526020600020905b81548152906001019060200180831161015457829003601f168201915b505050505081565b60008054906101000a900473ffffffffffffffffffffffffffffffffffffffff1673ffffffffffffffffffffffffffffffffffffffff168373ffffffffffffffffffffffffffffffffffffffff1603610207576040517f08c379a00000000000000000000000000000000000000000000000000000000081526004016101fe90610948565b60405180910390fd5b60008054906101000a900473ffffffffffffffffffffffffffffffffffffffff1673ffffffffffffffffffffffffffffffffffffffff163373ffffffffffffffffffffffffffffffffffffffff1614610295576040517f08c379a000000000000000000000000000000000000000000000000000000000815260040161028c906109da565b60405180910390fd5b60001515600260008573ffffffffffffffffffffffffffffffffffffffff1673ffffffffffffffffffffffffffffffffffffffff16815260200190815260200160002060010160009054906101000a900460ff1615151461032b576040517f08c379a000000000000000000000000000000000000000000000000000000000815260040161032290610a46565b60405180910390fd5b6000604051806040016040528084848080601f016020809104026020016040519081016040528093929190818152602001838380828437600081840152601f19601f82011690508083019250505050505050815260200160011515815250905080600260008673ffffffffffffffffffffffffffffffffffffffff1673ffffffffffffffffffffffffffffffffffffffff16815260200190815260200160002060008201518160000190805190602001906103e792919061054b565b5060208201518160010160006101000a81548160ff0219169083151502179055509050507f68f068b2f0d02fca99bc8285b62fce8668fe16b7c6a810351ea25bff358c0dd860405161043890610ab2565b60405180910390a150505050565b6003818154811061045657600080fd5b906000526020600020016000915090508054610471906108cb565b80601f016020809104026020016040519081016040528092919081815260200182805461049d906108cb565b80156104ea5780601f106104bf576101008083540402835291602001916104ea565b820191906000526020600020905b8154815290600101906020018083116104cd57829003601f168201915b505050505081565b6000600260008373ffffffffffffffffffffffffffffffffffffffff1673ffffffffffffffffffffffffffffffffffffffff16815260200190815260200160002060010160009054906101000a900460ff169050919050565b828054610557906108cb565b90600052602060002090601f01602090048101928261057957600085556105c0565b82601f1061059257805160ff19168380011785556105c0565b828001600101855582156105c0579182015b828111156105bf5782518255916020019190600101906105a4565b5b5090506105cd91906105d1565b5090565b5b808211156105ea5760008160009055506001016105d2565b5090565b600081519050919050565b600082825260208201905092915050565b60005b8381101561062857808201518184015260208101905061060d565b83811115610637576000848401525b50505050565b6000601f19601f8301169050919050565b6000610659826105ee565b61066381856105f9565b935061067381856020860161060a565b61067c8161063d565b840191505092915050565b600060208201905081810360008301526106a1818461064e565b905092915050565b600080fd5b600080fd5b600073ffffffffffffffffffffffffffffffffffffffff82169050919050565b60006106de826106b3565b9050919050565b6106ee816106d3565b81146106f957600080fd5b50565b60008135905061070b816106e5565b92915050565b600080fd5b600080fd5b600080fd5b60008083601f84011261073657610735610711565b5b8235905067ffffffffffffffff81111561075357610752610716565b5b60208301915083600182028301111561076f5761076e61071b565b5b9250929050565b60008060006040848603121561078f5761078e6106a9565b5b600061079d868287016106fc565b935050602084013567ffffffffffffffff8111156107be576107bd6106ae565b5b6107ca86828701610720565b92509250509250925092565b6000819050919050565b6107e9816107d6565b81146107f457600080fd5b50565b600081359050610806816107e0565b92915050565b600060208284031215610822576108216106a9565b5b6000610830848285016107f7565b91505092915050565b60006020828403121561084f5761084e6106a9565b5b600061085d848285016106fc565b91505092915050565b60008115159050919050565b61087b81610866565b82525050565b60006020820190506108966000830184610872565b92915050565b7f4e487b7100000000000000000000000000000000000000000000000000000000600052602260045260246000fd5b600060028204905060018216806108e357607f821691505b6020821081036108f6576108f561089c565b5b50919050565b7f43412063616e206e6f7420726567697374657221210000000000000000000000600082015250565b60006109326015836105f9565b915061093d826108fc565b602082019050919050565b6000602082019050818103600083015261096181610925565b9050919050565b7f4f6e6c792043412063616e20726567697374657220746865206465766963657360008201527f2121000000000000000000000000000000000000000000000000000000000000602082015250565b60006109c46022836105f9565b91506109cf82610968565b604082019050919050565b600060208201905081810360008301526109f3816109b7565b9050919050565b7f496f545f64657669636520616c72656164792072656769737465726564212100600082015250565b6000610a30601f836105f9565b9150610a3b826109fa565b602082019050919050565b60006020820190508181036000830152610a5f81610a23565b9050919050565b7f496f545f64657669636520726567697374657265642121000000000000000000600082015250565b6000610a9c6017836105f9565b9150610aa782610a66565b602082019050919050565b60006020820190508181036000830152610acb81610a8f565b905091905056fea2646970667358221220816335663536adfb62e78a5b8950095cbf20f50efeea3d2f400fd285326e1ec164736f6c634300080d0033",
  "immutableReferences": {},
  "source": "// SPDX-License-Identifier: GPL-3.0\r\n\r\npragma solidity ^0.8.13;\r\n\r\ncontract CertificateAuthority {\r\n    address private CA;\r\n    string public eventName;\r\n\r\n    struct IoT_device {\r\n        string name;\r\n        bool registered;\r\n    }\r\n\r\n    event success(string msg);\r\n\r\n    mapping(address => IoT_device) private IoT_deviceList;\r\n    string[] public dataTransferList;\r\n\r\n    constructor(string memory _eventName) {\r\n        CA = msg.sender;\r\n        eventName = _eventName;\r\n    }\r\n\r\n    function registerAddress(\r\n        address _IoT_deviceAddress,\r\n        string calldata _name\r\n    ) external {\r\n        require(_IoT_deviceAddress != CA, \"CA can not register!!\");\r\n        require(msg.sender == CA, \"Only CA can register the devices!!\");\r\n        require(\r\n            IoT_deviceList[_IoT_deviceAddress].registered == false,\r\n            \"IoT_device already registered!!\"\r\n        );\r\n        IoT_device memory newDevice = IoT_device({\r\n            name: _name,\r\n            registered: true\r\n        });\r\n\r\n        IoT_deviceList[_IoT_deviceAddress] = newDevice;\r\n        emit success(\"IoT_device registered!!\");\r\n    }\r\n\r\n    function getIoTDeviceRegistrationStatus(\r\n        address _deviceAddress\r\n    ) external view returns (bool) {\r\n        return IoT_deviceList[_deviceAddress].registered;\r\n    }\r\n}\r\n\r\n",
  "sourcePath": "C:\\Users\\aprit\\Downloads\\Blockchain_Project\\Voting-Dapp-master\\contract_folder\\contracts\\CertificateAuthority.sol",
  "compiler": {
    "name": "solc",
    "version": "0.8.13+commit.abaa5c0e.Emscripten.clang"
  },
  "schemaVersion": "3.4.16",
  "updatedAt": "2023-11-19T07:43:43.373Z",
  "networkType": "ethereum",
  "devdoc": {
    "kind": "dev",
    "methods": {},
    "version": 1
  },
  "userdoc": {
    "kind": "user",
    "methods": {},
    "version": 1
  }
}