{
  "contractName": "LPeer0",
  "abi": [
    {
      "inputs": [
        {
          "internalType": "address",
          "name": "_lPeerAddress",
          "type": "address"
        },
        {
          "internalType": "string",
          "name": "_eventName",
          "type": "string"
        }
      ],
      "stateMutability": "nonpayable",
      "type": "constructor"
    },
    {
      "anonymous": false,
      "inputs": [
        {
          "indexed": true,
          "internalType": "address",
          "name": "sender",
          "type": "address"
        },
        {
          "indexed": true,
          "internalType": "address",
          "name": "receiver",
          "type": "address"
        },
        {
          "indexed": false,
          "internalType": "string",
          "name": "data",
          "type": "string"
        }
      ],
      "name": "DataTransfer",
      "type": "event"
    },
    {
      "anonymous": false,
      "inputs": [
        {
          "indexed": false,
          "internalType": "string",
          "name": "msg",
          "type": "string"
        }
      ],
      "name": "success",
      "type": "event"
    },
    {
      "inputs": [],
      "name": "CA",
      "outputs": [
        {
          "internalType": "address",
          "name": "",
          "type": "address"
        }
      ],
      "stateMutability": "view",
      "type": "function",
      "constant": true
    },
    {
      "inputs": [
        {
          "internalType": "uint256",
          "name": "",
          "type": "uint256"
        }
      ],
      "name": "dataTransferList",
      "outputs": [
        {
          "internalType": "string",
          "name": "",
          "type": "string"
        }
      ],
      "stateMutability": "view",
      "type": "function",
      "constant": true
    },
    {
      "inputs": [],
      "name": "eventName",
      "outputs": [
        {
          "internalType": "string",
          "name": "",
          "type": "string"
        }
      ],
      "stateMutability": "view",
      "type": "function",
      "constant": true
    },
    {
      "inputs": [],
      "name": "lPeerContract",
      "outputs": [
        {
          "internalType": "contract LPeer",
          "name": "",
          "type": "address"
        }
      ],
      "stateMutability": "view",
      "type": "function",
      "constant": true
    },
    {
      "inputs": [],
      "name": "initialize",
      "outputs": [],
      "stateMutability": "view",
      "type": "function",
      "constant": true
    },
    {
      "inputs": [
        {
          "internalType": "address",
          "name": "_receiverAddress",
          "type": "address"
        },
        {
          "internalType": "string",
          "name": "_data",
          "type": "string"
        }
      ],
      "name": "sendData",
      "outputs": [],
      "stateMutability": "nonpayable",
      "type": "function"
    }
  ],
  "bytecode": "0x60806040523480156200001157600080fd5b5060405162000f3838038062000f3883398181016040528101906200003791906200038b565b81600360006101000a81548173ffffffffffffffffffffffffffffffffffffffff021916908373ffffffffffffffffffffffffffffffffffffffff160217905550336000806101000a81548173ffffffffffffffffffffffffffffffffffffffff021916908373ffffffffffffffffffffffffffffffffffffffff1602179055508060019080519060200190620000d0929190620000d9565b50505062000455565b828054620000e79062000420565b90600052602060002090601f0160209004810192826200010b576000855562000157565b82601f106200012657805160ff191683800117855562000157565b8280016001018555821562000157579182015b828111156200015657825182559160200191906001019062000139565b5b5090506200016691906200016a565b5090565b5b80821115620001855760008160009055506001016200016b565b5090565b6000604051905090565b600080fd5b600080fd5b600073ffffffffffffffffffffffffffffffffffffffff82169050919050565b6000620001ca826200019d565b9050919050565b620001dc81620001bd565b8114620001e857600080fd5b50565b600081519050620001fc81620001d1565b92915050565b600080fd5b600080fd5b6000601f19601f8301169050919050565b7f4e487b7100000000000000000000000000000000000000000000000000000000600052604160045260246000fd5b62000257826200020c565b810181811067ffffffffffffffff821117156200027957620002786200021d565b5b80604052505050565b60006200028e62000189565b90506200029c82826200024c565b919050565b600067ffffffffffffffff821115620002bf57620002be6200021d565b5b620002ca826200020c565b9050602081019050919050565b60005b83811015620002f7578082015181840152602081019050620002da565b8381111562000307576000848401525b50505050565b6000620003246200031e84620002a1565b62000282565b90508281526020810184848401111562000343576200034262000207565b5b62000350848285620002d7565b509392505050565b600082601f83011262000370576200036f62000202565b5b8151620003828482602086016200030d565b91505092915050565b60008060408385031215620003a557620003a462000193565b5b6000620003b585828601620001eb565b925050602083015167ffffffffffffffff811115620003d957620003d862000198565b5b620003e78582860162000358565b9150509250929050565b7f4e487b7100000000000000000000000000000000000000000000000000000000600052602260045260246000fd5b600060028204905060018216806200043957607f821691505b6020821081036200044f576200044e620003f1565b5b50919050565b610ad380620004656000396000f3fe608060405234801561001057600080fd5b50600436106100625760003560e01c80635ccfd1fc146100675780638043c9c0146100855780638129fc1c146100a3578063b0270237146100ad578063c95e7a7e146100cb578063e6dd938d146100fb575b600080fd5b61006f610117565b60405161007c9190610525565b60405180910390f35b61008d61013d565b60405161009a91906105d9565b60405180910390f35b6100ab6101cb565b005b6100b561025b565b6040516100c2919061061c565b60405180910390f35b6100e560048036038101906100e09190610681565b61027f565b6040516100f291906105d9565b60405180910390f35b6101156004803603810190610110919061080f565b61032b565b005b600360009054906101000a900473ffffffffffffffffffffffffffffffffffffffff1681565b6001805461014a9061089a565b80601f01602080910402602001604051908101604052809291908181526020018280546101769061089a565b80156101c35780601f10610198576101008083540402835291602001916101c3565b820191906000526020600020905b8154815290600101906020018083116101a657829003601f168201915b505050505081565b3373ffffffffffffffffffffffffffffffffffffffff1660008054906101000a900473ffffffffffffffffffffffffffffffffffffffff1673ffffffffffffffffffffffffffffffffffffffff1614610259576040517f08c379a000000000000000000000000000000000000000000000000000000000815260040161025090610917565b60405180910390fd5b565b60008054906101000a900473ffffffffffffffffffffffffffffffffffffffff1681565b6002818154811061028f57600080fd5b9060005260206000200160009150905080546102aa9061089a565b80601f01602080910402602001604051908101604052809291908181526020018280546102d69061089a565b80156103235780601f106102f857610100808354040283529160200191610323565b820191906000526020600020905b81548152906001019060200180831161030657829003601f168201915b505050505081565b600360009054906101000a900473ffffffffffffffffffffffffffffffffffffffff1673ffffffffffffffffffffffffffffffffffffffff16632c2146aa33846040518363ffffffff1660e01b8152600401610388929190610937565b602060405180830381865afa1580156103a5573d6000803e3d6000fd5b505050506040513d601f19601f820116820180604052508101906103c99190610998565b610408576040517f08c379a00000000000000000000000000000000000000000000000000000000081526004016103ff90610a11565b60405180910390fd5b8173ffffffffffffffffffffffffffffffffffffffff163373ffffffffffffffffffffffffffffffffffffffff167f747d0b6eae47f3d0cf75c5e54198f966dae9ae59f735dccaeb5c413fdc09dd118360405161046591906105d9565b60405180910390a37f68f068b2f0d02fca99bc8285b62fce8668fe16b7c6a810351ea25bff358c0dd860405161049a90610a7d565b60405180910390a15050565b600073ffffffffffffffffffffffffffffffffffffffff82169050919050565b6000819050919050565b60006104eb6104e66104e1846104a6565b6104c6565b6104a6565b9050919050565b60006104fd826104d0565b9050919050565b600061050f826104f2565b9050919050565b61051f81610504565b82525050565b600060208201905061053a6000830184610516565b92915050565b600081519050919050565b600082825260208201905092915050565b60005b8381101561057a57808201518184015260208101905061055f565b83811115610589576000848401525b50505050565b6000601f19601f8301169050919050565b60006105ab82610540565b6105b5818561054b565b93506105c581856020860161055c565b6105ce8161058f565b840191505092915050565b600060208201905081810360008301526105f381846105a0565b905092915050565b6000610606826104a6565b9050919050565b610616816105fb565b82525050565b6000602082019050610631600083018461060d565b92915050565b6000604051905090565b600080fd5b600080fd5b6000819050919050565b61065e8161064b565b811461066957600080fd5b50565b60008135905061067b81610655565b92915050565b60006020828403121561069757610696610641565b5b60006106a58482850161066c565b91505092915050565b6106b7816105fb565b81146106c257600080fd5b50565b6000813590506106d4816106ae565b92915050565b600080fd5b600080fd5b7f4e487b7100000000000000000000000000000000000000000000000000000000600052604160045260246000fd5b61071c8261058f565b810181811067ffffffffffffffff8211171561073b5761073a6106e4565b5b80604052505050565b600061074e610637565b905061075a8282610713565b919050565b600067ffffffffffffffff82111561077a576107796106e4565b5b6107838261058f565b9050602081019050919050565b82818337600083830152505050565b60006107b26107ad8461075f565b610744565b9050828152602081018484840111156107ce576107cd6106df565b5b6107d9848285610790565b509392505050565b600082601f8301126107f6576107f56106da565b5b813561080684826020860161079f565b91505092915050565b6000806040838503121561082657610825610641565b5b6000610834858286016106c5565b925050602083013567ffffffffffffffff81111561085557610854610646565b5b610861858286016107e1565b9150509250929050565b7f4e487b7100000000000000000000000000000000000000000000000000000000600052602260045260246000fd5b600060028204905060018216806108b257607f821691505b6020821081036108c5576108c461086b565b5b50919050565b7f4f6e6c792043412063616e20696e697469616c697a6500000000000000000000600082015250565b600061090160168361054b565b915061090c826108cb565b602082019050919050565b60006020820190508181036000830152610930816108f4565b9050919050565b600060408201905061094c600083018561060d565b610959602083018461060d565b9392505050565b60008115159050919050565b61097581610960565b811461098057600080fd5b50565b6000815190506109928161096c565b92915050565b6000602082840312156109ae576109ad610641565b5b60006109bc84828501610983565b91505092915050565b7f566572696669636174696f6e206661696c656400000000000000000000000000600082015250565b60006109fb60138361054b565b9150610a06826109c5565b602082019050919050565b60006020820190508181036000830152610a2a816109ee565b9050919050565b7f446174612053656e742021210000000000000000000000000000000000000000600082015250565b6000610a67600c8361054b565b9150610a7282610a31565b602082019050919050565b60006020820190508181036000830152610a9681610a5a565b905091905056fea264697066735822122026a1910ad3f96ecb2b38f1b3a98f42c2f78323d50b88a8f53eadfaf9fdf10a2764736f6c634300080d0033",
  "immutableReferences": {},
  "source": "// SPDX-License-Identifier: GPL-3.0\r\n\r\npragma solidity ^0.8.13;\r\n\r\nimport \"./LPeer.sol\";\r\n\r\ncontract LPeer0 {\r\n\r\n    address public CA;\r\n    string public eventName;\r\n\r\n    event success(string msg);\r\n    event DataTransfer(address indexed sender, address indexed receiver, string data);\r\n\r\n    string[] public dataTransferList;\r\n\r\n    LPeer public lPeerContract;\r\n\r\n    constructor(address _lPeerAddress, string memory _eventName) {\r\n        lPeerContract = LPeer(_lPeerAddress);\r\n        CA = msg.sender;\r\n        eventName = _eventName;\r\n    }\r\n\r\n    function initialize() external view {\r\n        require(CA == msg.sender, \"Only CA can initialize\");\r\n        // Additional initialization logic if needed\r\n    }\r\n\r\n    function sendData(address _receiverAddress, string memory _data) external {\r\n        require(lPeerContract.verify(msg.sender, _receiverAddress), \"Verification failed\");\r\n        // Other data sending logic...\r\n        emit DataTransfer(msg.sender, _receiverAddress, _data);\r\n        emit success(\"Data Sent !!\");\r\n    }\r\n}\r\n",
  "sourcePath": "C:\\Users\\aprit\\Downloads\\Blockchain_Project\\Voting-Dapp-master\\contract_folder\\contracts\\LPeer0.sol",
  "compiler": {
    "name": "solc",
    "version": "0.8.13+commit.abaa5c0e.Emscripten.clang"
  },
  "schemaVersion": "3.4.16",
  "updatedAt": "2023-11-19T07:43:43.724Z",
  "networkType": "ethereum",
  "devdoc": {
    "kind": "dev",
    "methods": {},
    "version": 1
  },
  "userdoc": {
    "kind": "user",
    "methods": {},
    "version": 1
  }
}