{
  "contractName": "AnchorPeer",
  "abi": [
    {
      "inputs": [
        {
          "internalType": "address",
          "name": "_caAddress",
          "type": "address"
        },
        {
          "internalType": "address",
          "name": "_lPeerAddress",
          "type": "address"
        },
        {
          "internalType": "address",
          "name": "_lPeer0Address",
          "type": "address"
        }
      ],
      "stateMutability": "nonpayable",
      "type": "constructor"
    },
    {
      "anonymous": false,
      "inputs": [
        {
          "indexed": false,
          "internalType": "string",
          "name": "msg",
          "type": "string"
        }
      ],
      "name": "success",
      "type": "event"
    },
    {
      "inputs": [],
      "name": "caContract",
      "outputs": [
        {
          "internalType": "contract CertificateAuthority",
          "name": "",
          "type": "address"
        }
      ],
      "stateMutability": "view",
      "type": "function"
    },
    {
      "inputs": [],
      "name": "lPeer0Contract",
      "outputs": [
        {
          "internalType": "contract LPeer0",
          "name": "",
          "type": "address"
        }
      ],
      "stateMutability": "view",
      "type": "function"
    },
    {
      "inputs": [],
      "name": "lPeerContract",
      "outputs": [
        {
          "internalType": "contract LPeer",
          "name": "",
          "type": "address"
        }
      ],
      "stateMutability": "view",
      "type": "function"
    },
    {
      "inputs": [
        {
          "internalType": "address",
          "name": "",
          "type": "address"
        }
      ],
      "name": "registeredDevices",
      "outputs": [
        {
          "internalType": "bool",
          "name": "",
          "type": "bool"
        }
      ],
      "stateMutability": "view",
      "type": "function"
    },
    {
      "inputs": [
        {
          "internalType": "address",
          "name": "_IoT_deviceAddress",
          "type": "address"
        },
        {
          "internalType": "string",
          "name": "_name",
          "type": "string"
        }
      ],
      "name": "registerDevice",
      "outputs": [],
      "stateMutability": "nonpayable",
      "type": "function"
    },
    {
      "inputs": [
        {
          "internalType": "address",
          "name": "_sender",
          "type": "address"
        },
        {
          "internalType": "address",
          "name": "_receiver",
          "type": "address"
        }
      ],
      "name": "verifyDevices",
      "outputs": [
        {
          "internalType": "bool",
          "name": "",
          "type": "bool"
        }
      ],
      "stateMutability": "view",
      "type": "function"
    },
    {
      "inputs": [
        {
          "internalType": "address",
          "name": "_sender",
          "type": "address"
        },
        {
          "internalType": "address",
          "name": "_receiver",
          "type": "address"
        },
        {
          "internalType": "string",
          "name": "_data",
          "type": "string"
        }
      ],
      "name": "sendData",
      "outputs": [],
      "stateMutability": "nonpayable",
      "type": "function"
    }
  ],
  "bytecode": "0x60806040523480156200001157600080fd5b50604051620012763803806200127683398181016040528101906200003791906200016c565b826000806101000a81548173ffffffffffffffffffffffffffffffffffffffff021916908373ffffffffffffffffffffffffffffffffffffffff16021790555081600160006101000a81548173ffffffffffffffffffffffffffffffffffffffff021916908373ffffffffffffffffffffffffffffffffffffffff16021790555080600260006101000a81548173ffffffffffffffffffffffffffffffffffffffff021916908373ffffffffffffffffffffffffffffffffffffffff160217905550505050620001c8565b600080fd5b600073ffffffffffffffffffffffffffffffffffffffff82169050919050565b6000620001348262000107565b9050919050565b620001468162000127565b81146200015257600080fd5b50565b60008151905062000166816200013b565b92915050565b60008060006060848603121562000188576200018762000102565b5b6000620001988682870162000155565b9350506020620001ab8682870162000155565b9250506040620001be8682870162000155565b9150509250925092565b61109e80620001d86000396000f3fe608060405234801561001057600080fd5b506004361061007d5760003560e01c8063733b59421161005b578063733b5942146100da578063a63382b0146100f6578063b8f8bbdf14610126578063c1d4c6d3146101565761007d565b80632b389aee1461008257806347a035281461009e5780635ccfd1fc146100bc575b600080fd5b61009c600480360381019061009791906108b8565b610174565b005b6100a66103a4565b6040516100b3919061098b565b60405180910390f35b6100c46103ca565b6040516100d191906109c7565b60405180910390f35b6100f460048036038101906100ef91906109e2565b6103f0565b005b610110600480360381019061010b9190610a42565b6105e8565b60405161011d9190610a9d565b60405180910390f35b610140600480360381019061013b9190610ab8565b6107a7565b60405161014d9190610a9d565b60405180910390f35b61015e6107c7565b60405161016b9190610b06565b60405180910390f35b600160009054906101000a900473ffffffffffffffffffffffffffffffffffffffff1673ffffffffffffffffffffffffffffffffffffffff16632c2146aa85856040518363ffffffff1660e01b81526004016101d1929190610b30565b602060405180830381865afa1580156101ee573d6000803e3d6000fd5b505050506040513d601f19601f820116820180604052508101906102129190610b85565b610251576040517f08c379a000000000000000000000000000000000000000000000000000000000815260040161024890610c35565b60405180910390fd5b600360008573ffffffffffffffffffffffffffffffffffffffff1673ffffffffffffffffffffffffffffffffffffffff16815260200190815260200160002060009054906101000a900460ff166102dd576040517f08c379a00000000000000000000000000000000000000000000000000000000081526004016102d490610cc7565b60405180910390fd5b600360008473ffffffffffffffffffffffffffffffffffffffff1673ffffffffffffffffffffffffffffffffffffffff16815260200190815260200160002060009054906101000a900460ff16610369576040517f08c379a000000000000000000000000000000000000000000000000000000000815260040161036090610d59565b60405180910390fd5b7f68f068b2f0d02fca99bc8285b62fce8668fe16b7c6a810351ea25bff358c0dd860405161039690610dc5565b60405180910390a150505050565b600260009054906101000a900473ffffffffffffffffffffffffffffffffffffffff1681565b600160009054906101000a900473ffffffffffffffffffffffffffffffffffffffff1681565b60008054906101000a900473ffffffffffffffffffffffffffffffffffffffff1673ffffffffffffffffffffffffffffffffffffffff1663ed04e1ff846040518263ffffffff1660e01b81526004016104499190610de5565b602060405180830381865afa158015610466573d6000803e3d6000fd5b505050506040513d601f19601f8201168201806040525081019061048a9190610b85565b6104c9576040517f08c379a00000000000000000000000000000000000000000000000000000000081526004016104c090610e4c565b60405180910390fd5b600360008473ffffffffffffffffffffffffffffffffffffffff1673ffffffffffffffffffffffffffffffffffffffff16815260200190815260200160002060009054906101000a900460ff1615610556576040517f08c379a000000000000000000000000000000000000000000000000000000000815260040161054d90610eb8565b60405180910390fd5b6001600360008573ffffffffffffffffffffffffffffffffffffffff1673ffffffffffffffffffffffffffffffffffffffff16815260200190815260200160002060006101000a81548160ff0219169083151502179055507f68f068b2f0d02fca99bc8285b62fce8668fe16b7c6a810351ea25bff358c0dd86040516105db90610f24565b60405180910390a1505050565b60008060009054906101000a900473ffffffffffffffffffffffffffffffffffffffff1673ffffffffffffffffffffffffffffffffffffffff1663ed04e1ff846040518263ffffffff1660e01b81526004016106449190610de5565b602060405180830381865afa158015610661573d6000803e3d6000fd5b505050506040513d601f19601f820116820180604052508101906106859190610b85565b6106c4576040517f08c379a00000000000000000000000000000000000000000000000000000000081526004016106bb90610fb6565b60405180910390fd5b60008054906101000a900473ffffffffffffffffffffffffffffffffffffffff1673ffffffffffffffffffffffffffffffffffffffff1663ed04e1ff836040518263ffffffff1660e01b815260040161071d9190610de5565b602060405180830381865afa15801561073a573d6000803e3d6000fd5b505050506040513d601f19601f8201168201806040525081019061075e9190610b85565b61079d576040517f08c379a000000000000000000000000000000000000000000000000000000000815260040161079490611048565b60405180910390fd5b6001905092915050565b60036020528060005260406000206000915054906101000a900460ff1681565b60008054906101000a900473ffffffffffffffffffffffffffffffffffffffff1681565b600080fd5b600080fd5b600073ffffffffffffffffffffffffffffffffffffffff82169050919050565b6000610820826107f5565b9050919050565b61083081610815565b811461083b57600080fd5b50565b60008135905061084d81610827565b92915050565b600080fd5b600080fd5b600080fd5b60008083601f84011261087857610877610853565b5b8235905067ffffffffffffffff81111561089557610894610858565b5b6020830191508360018202830111156108b1576108b061085d565b5b9250929050565b600080600080606085870312156108d2576108d16107eb565b5b60006108e08782880161083e565b94505060206108f18782880161083e565b935050604085013567ffffffffffffffff811115610912576109116107f0565b5b61091e87828801610862565b925092505092959194509250565b6000819050919050565b600061095161094c610947846107f5565b61092c565b6107f5565b9050919050565b600061096382610936565b9050919050565b600061097582610958565b9050919050565b6109858161096a565b82525050565b60006020820190506109a0600083018461097c565b92915050565b60006109b182610958565b9050919050565b6109c1816109a6565b82525050565b60006020820190506109dc60008301846109b8565b92915050565b6000806000604084860312156109fb576109fa6107eb565b5b6000610a098682870161083e565b935050602084013567ffffffffffffffff811115610a2a57610a296107f0565b5b610a3686828701610862565b92509250509250925092565b60008060408385031215610a5957610a586107eb565b5b6000610a678582860161083e565b9250506020610a788582860161083e565b9150509250929050565b60008115159050919050565b610a9781610a82565b82525050565b6000602082019050610ab26000830184610a8e565b92915050565b600060208284031215610ace57610acd6107eb565b5b6000610adc8482850161083e565b91505092915050565b6000610af082610958565b9050919050565b610b0081610ae5565b82525050565b6000602082019050610b1b6000830184610af7565b92915050565b610b2a81610815565b82525050565b6000604082019050610b456000830185610b21565b610b526020830184610b21565b9392505050565b610b6281610a82565b8114610b6d57600080fd5b50565b600081519050610b7f81610b59565b92915050565b600060208284031215610b9b57610b9a6107eb565b5b6000610ba984828501610b70565b91505092915050565b600082825260208201905092915050565b7f566572696669636174696f6e206661696c656420696e206c50656572436f6e7460008201527f7261637400000000000000000000000000000000000000000000000000000000602082015250565b6000610c1f602483610bb2565b9150610c2a82610bc3565b604082019050919050565b60006020820190508181036000830152610c4e81610c12565b9050919050565b7f53656e64657220646576696365206e6f74207265676973746572656420696e2060008201527f416e63686f725065657200000000000000000000000000000000000000000000602082015250565b6000610cb1602a83610bb2565b9150610cbc82610c55565b604082019050919050565b60006020820190508181036000830152610ce081610ca4565b9050919050565b7f526563656976657220646576696365206e6f742072656769737465726564206960008201527f6e20416e63686f72506565720000000000000000000000000000000000000000602082015250565b6000610d43602c83610bb2565b9150610d4e82610ce7565b604082019050919050565b60006020820190508181036000830152610d7281610d36565b9050919050565b7f446174612053656e742121000000000000000000000000000000000000000000600082015250565b6000610daf600b83610bb2565b9150610dba82610d79565b602082019050919050565b60006020820190508181036000830152610dde81610da2565b9050919050565b6000602082019050610dfa6000830184610b21565b92915050565b7f496f545f646576696365206e6f74207265676973746572656420696e20434100600082015250565b6000610e36601f83610bb2565b9150610e4182610e00565b602082019050919050565b60006020820190508181036000830152610e6581610e29565b9050919050565b7f496f545f64657669636520616c72656164792072656769737465726564000000600082015250565b6000610ea2601d83610bb2565b9150610ead82610e6c565b602082019050919050565b60006020820190508181036000830152610ed181610e95565b9050919050565b7f4465766963652072656769737465726564210000000000000000000000000000600082015250565b6000610f0e601283610bb2565b9150610f1982610ed8565b602082019050919050565b60006020820190508181036000830152610f3d81610f01565b9050919050565b7f53656e64657220496f545f646576696365206e6f74207265676973746572656460008201527f20696e2043410000000000000000000000000000000000000000000000000000602082015250565b6000610fa0602683610bb2565b9150610fab82610f44565b604082019050919050565b60006020820190508181036000830152610fcf81610f93565b9050919050565b7f526563656976657220496f545f646576696365206e6f7420726567697374657260008201527f656420696e204341000000000000000000000000000000000000000000000000602082015250565b6000611032602883610bb2565b915061103d82610fd6565b604082019050919050565b6000602082019050818103600083015261106181611025565b905091905056fea2646970667358221220615f07e299553de8709cde336fb0e5b9a3ccf6dc22faeecd93052452353cbbfb64736f6c634300080d0033",
  "immutableReferences": {},
  "source": "// // SPDX-License-Identifier: GPL-3.0\r\n\r\n// pragma solidity ^0.8.13;\r\n\r\n// contract AnchorPeer{\r\n//     address private Mine;\r\n//     string AnchorName;\r\n//     struct Community{\r\n//         string name;\r\n//         address addr;\r\n    \r\n//     }\r\n//     constructor(){\r\n//         Mine=msg.sender;\r\n//     }\r\n//     mapping (address => Community)  private CommMap;\r\n//     function registerCommunity  (string calldata _name) external {\r\n//         CommMap[msg.sender]=Community({\r\n//             name:_name,\r\n//             addr:msg.sender\r\n//         });\r\n//     }\r\n// }\r\n\r\npragma solidity ^0.8.13;\r\n\r\nimport \"./CertificateAuthority.sol\";\r\nimport \"./LPeer.sol\";\r\nimport \"./LPeer0.sol\";\r\n\r\ncontract AnchorPeer {\r\n    CertificateAuthority public caContract;\r\n    LPeer public lPeerContract;\r\n    LPeer0 public lPeer0Contract;\r\n\r\n    mapping(address => bool) public registeredDevices;\r\n\r\n    event success(string msg);\r\n\r\n    constructor(\r\n        address _caAddress,\r\n        address _lPeerAddress,\r\n        address _lPeer0Address\r\n    ) {\r\n        caContract = CertificateAuthority(_caAddress);\r\n        lPeerContract = LPeer(_lPeerAddress);\r\n        lPeer0Contract = LPeer0(_lPeer0Address);\r\n    }\r\n\r\n    function registerDevice(\r\n        address _IoT_deviceAddress,\r\n        string calldata _name\r\n    ) external {\r\n        require(\r\n            caContract.getIoTDeviceRegistrationStatus(_IoT_deviceAddress),\r\n            \"IoT_device not registered in CA\"\r\n        );\r\n\r\n        require(\r\n            !registeredDevices[_IoT_deviceAddress],\r\n            \"IoT_device already registered\"\r\n        );\r\n\r\n        registeredDevices[_IoT_deviceAddress] = true;\r\n\r\n        // You can emit an event or perform other actions if needed\r\n        emit success(\"Device registered!\");\r\n    }\r\n\r\n    function verifyDevices(\r\n        address _sender,\r\n        address _receiver\r\n    ) external view returns (bool) {\r\n        require(\r\n            caContract.getIoTDeviceRegistrationStatus(_sender),\r\n            \"Sender IoT_device not registered in CA\"\r\n        );\r\n\r\n        require(\r\n            caContract.getIoTDeviceRegistrationStatus(_receiver),\r\n            \"Receiver IoT_device not registered in CA\"\r\n        );\r\n\r\n        return true;\r\n    }\r\n\r\n    function sendData(\r\n        address _sender,\r\n        address _receiver,\r\n        string calldata _data\r\n    ) external {\r\n        require(\r\n            lPeerContract.verify(_sender, _receiver),\r\n            \"Verification failed in lPeerContract\"\r\n        );\r\n\r\n        require(\r\n            registeredDevices[_sender],\r\n            \"Sender device not registered in AnchorPeer\"\r\n        );\r\n\r\n        require(\r\n            registeredDevices[_receiver],\r\n            \"Receiver device not registered in AnchorPeer\"\r\n        );\r\n        emit success(\"Data Sent!!\");\r\n    }\r\n}\r\n",
  "sourcePath": "C:\\Users\\aprit\\Downloads\\Blockchain_Project\\Voting-Dapp-master\\contract_folder\\contracts\\AnchorPeer.sol",
  "compiler": {
    "name": "solc",
    "version": "0.8.13+commit.abaa5c0e.Emscripten.clang"
  },
  "schemaVersion": "3.4.16",
  "updatedAt": "2023-11-19T07:43:43.715Z",
  "networkType": "ethereum",
  "devdoc": {
    "kind": "dev",
    "methods": {},
    "version": 1
  },
  "userdoc": {
    "kind": "user",
    "methods": {},
    "version": 1
  }
}