{
  "contractName": "LPeer",
  "abi": [
    {
      "inputs": [
        {
          "internalType": "address",
          "name": "_caAddress",
          "type": "address"
        }
      ],
      "stateMutability": "nonpayable",
      "type": "constructor"
    },
    {
      "inputs": [],
      "name": "caContract",
      "outputs": [
        {
          "internalType": "contract CertificateAuthority",
          "name": "",
          "type": "address"
        }
      ],
      "stateMutability": "view",
      "type": "function",
      "constant": true
    },
    {
      "inputs": [
        {
          "internalType": "address",
          "name": "_sender",
          "type": "address"
        },
        {
          "internalType": "address",
          "name": "_receiver",
          "type": "address"
        }
      ],
      "name": "verify",
      "outputs": [
        {
          "internalType": "bool",
          "name": "",
          "type": "bool"
        }
      ],
      "stateMutability": "view",
      "type": "function",
      "constant": true
    }
  ],
  "bytecode": "0x608060405234801561001057600080fd5b5060405161069e38038061069e833981810160405281019061003291906100db565b806000806101000a81548173ffffffffffffffffffffffffffffffffffffffff021916908373ffffffffffffffffffffffffffffffffffffffff16021790555050610108565b600080fd5b600073ffffffffffffffffffffffffffffffffffffffff82169050919050565b60006100a88261007d565b9050919050565b6100b88161009d565b81146100c357600080fd5b50565b6000815190506100d5816100af565b92915050565b6000602082840312156100f1576100f0610078565b5b60006100ff848285016100c6565b91505092915050565b610587806101176000396000f3fe608060405234801561001057600080fd5b50600436106100365760003560e01c80632c2146aa1461003b578063c1d4c6d31461006b575b600080fd5b610055600480360381019061005091906102cf565b610089565b604051610062919061032a565b60405180910390f35b610073610248565b60405161008091906103a4565b60405180910390f35b60008060009054906101000a900473ffffffffffffffffffffffffffffffffffffffff1673ffffffffffffffffffffffffffffffffffffffff1663ed04e1ff846040518263ffffffff1660e01b81526004016100e591906103ce565b602060405180830381865afa158015610102573d6000803e3d6000fd5b505050506040513d601f19601f820116820180604052508101906101269190610415565b610165576040517f08c379a000000000000000000000000000000000000000000000000000000000815260040161015c9061049f565b60405180910390fd5b60008054906101000a900473ffffffffffffffffffffffffffffffffffffffff1673ffffffffffffffffffffffffffffffffffffffff1663ed04e1ff836040518263ffffffff1660e01b81526004016101be91906103ce565b602060405180830381865afa1580156101db573d6000803e3d6000fd5b505050506040513d601f19601f820116820180604052508101906101ff9190610415565b61023e576040517f08c379a000000000000000000000000000000000000000000000000000000000815260040161023590610531565b60405180910390fd5b6001905092915050565b60008054906101000a900473ffffffffffffffffffffffffffffffffffffffff1681565b600080fd5b600073ffffffffffffffffffffffffffffffffffffffff82169050919050565b600061029c82610271565b9050919050565b6102ac81610291565b81146102b757600080fd5b50565b6000813590506102c9816102a3565b92915050565b600080604083850312156102e6576102e561026c565b5b60006102f4858286016102ba565b9250506020610305858286016102ba565b9150509250929050565b60008115159050919050565b6103248161030f565b82525050565b600060208201905061033f600083018461031b565b92915050565b6000819050919050565b600061036a61036561036084610271565b610345565b610271565b9050919050565b600061037c8261034f565b9050919050565b600061038e82610371565b9050919050565b61039e81610383565b82525050565b60006020820190506103b96000830184610395565b92915050565b6103c881610291565b82525050565b60006020820190506103e360008301846103bf565b92915050565b6103f28161030f565b81146103fd57600080fd5b50565b60008151905061040f816103e9565b92915050565b60006020828403121561042b5761042a61026c565b5b600061043984828501610400565b91505092915050565b600082825260208201905092915050565b7f53656e64657220496f545f646576696365206e6f742072656769737465726564600082015250565b6000610489602083610442565b915061049482610453565b602082019050919050565b600060208201905081810360008301526104b88161047c565b9050919050565b7f526563656976657220496f545f646576696365206e6f7420726567697374657260008201527f6564000000000000000000000000000000000000000000000000000000000000602082015250565b600061051b602283610442565b9150610526826104bf565b604082019050919050565b6000602082019050818103600083015261054a8161050e565b905091905056fea2646970667358221220cf106379b99ea3310a787c8874645aff7dbfa10966ef93ce97963f3bf728977764736f6c634300080d0033",
  "immutableReferences": {},
  "source": "// SPDX-License-Identifier: GPL-3.0\r\n\r\npragma solidity ^0.8.13;\r\n\r\nimport \"./CertificateAuthority.sol\";\r\n\r\ncontract LPeer {\r\n    CertificateAuthority public caContract;\r\n\r\n    constructor(address _caAddress) {\r\n        caContract = CertificateAuthority(_caAddress);\r\n    }\r\n\r\n    function verify(address _sender, address _receiver) external view returns (bool) {\r\n        require(caContract.getIoTDeviceRegistrationStatus(_sender), \"Sender IoT_device not registered\");\r\n        require(caContract.getIoTDeviceRegistrationStatus(_receiver), \"Receiver IoT_device not registered\");\r\n        return true;\r\n    }\r\n}\r\n",
  "sourcePath": "C:\\Users\\aprit\\Downloads\\Blockchain_Project\\Voting-Dapp-master\\contract_folder\\contracts\\LPeer.sol",
  "compiler": {
    "name": "solc",
    "version": "0.8.13+commit.abaa5c0e.Emscripten.clang"
  },
  "schemaVersion": "3.4.16",
  "updatedAt": "2023-11-19T07:43:43.729Z",
  "networkType": "ethereum",
  "devdoc": {
    "kind": "dev",
    "methods": {},
    "version": 1
  },
  "userdoc": {
    "kind": "user",
    "methods": {},
    "version": 1
  }
}